:020000006E2A66
:10000800400C003E03178F000313400C3F0C233EA7
:1000180003178D0003188F0A83168C170C14000021
:100028000000831203133F181E2803170C087F399A
:100038000313080003170C0D0E0D031308008A069E
:100048008A06BD1EBD1EBD1EBD1E522A4310C422F7
:10005800CD27BD1EBD1EBD1EBD1E8A068026E134ED
:100068006E10CD32EE3A3A050D00A018291050391D
:10007800EF33F2306D10522A4310CD37E43AEC32A8
:100088008A060010B214A021E832E3352029D421D1
:10009800202AE93665050D008A06201D20006334F4
:1000A800EF34E332A01EA01264000A058D217539D1
:1000B800F2326E3A202AE936651061376410C4308E
:1000C800F4323A058A06201000102D10001930006D
:1000D8008A062010D3285710D332743A6937E73983
:1000E800201DA01268108012641D80126410002860
:1000F8004D00C12600050D10E117731063346137F8
:10010800E732A03165366C107C10AB172D106937BB
:100118006339E530F3322F32E531F232E1396510D7
:100128007C107010F4372038F2376739E1368A06C8
:1001380080297537E4307900CD376E32E13C002AEA
:10014800F5327332E13C802B6532EE327332E13C9A
:10015800002AE83AF239E430790046396932E13C5C
:100168008029613A7539E4307900CA30EE3A61394C
:100178007900C6326239F530F23C80266139633441
:100188008020703969368026E13C00257537650086
:10019800CA3AEC3C8020F533F5397400D332703A12
:1001A800E536E2327200CF31F437E2327200CE37F0
:1001B800F6326D3165390022E531E536E2327200FA
:1001C800A012641600103218B0126410201020001B
:1001D800A016AD12E8162D1000008316031318118F
:1001E8001812831298171F30831699007F1CFF2856
:1001F8000C160B178B179816080083160313181183
:100208001812831298171F30831699008312181634
:100218007F1C122983168C160B178B178316080060
:10022800BF000C1E15293F08990008008C1E1A29CA
:100238001A080800BF0001308A003F0882073034DE
:100248003134323433343434353436343734383462
:100258003934413442344334443445344634B601A5
:10026800B701B2012F08C00032082E07BF000318DB
:10027800C00A0420B300B3080319012A253A031D54
:10028800FD29B20A2F08C00032082E07BF00031844
:10029800C00A0420B300B3080319012A5C3A031DFD
:1002A8006129B20A2F08C00032082E07BF000318C0
:1002B800C00A0420B3001421FF293308623A031D41
:1002C8007D29B401083034020318FF29B01F6E29B4
:1002D80031301421B01B7229303014213408033A0C
:1002E800031D7829203014210310B00DB10DB40A74
:1002F80066293308643A031DD12930083104031DE7
:10030800882930301421FF290430B400B11BC329D7
:10031800300831040319C3293008C0003108C1006E
:10032800B5011030BF00C00DC10DB50D0318A029CF
:100338000A303502031CA2290A30B502BF0B9729DF
:100348003A30340784008313350880003008C00031
:100358003108C100C2011030BF00C00DC10DC20D6F
:100368000318BA290A304202031CBD290A30C20206
:100378000314B00DB10DBF0BB129B4038A29B40A17
:10038800053034020318FF293A30340784008313F8
:1003980000081E211421B40AC4293308683A031D31
:1003A800EF293030142178301421B11BE629B10827
:1003B8000319E629310E0F391E2114210F3031059A
:1003C8001E211421300E0F391E2114210F30300543
:1003D8001E211421FF293308663A031DF62921300E
:1003E8001421FF293308753A031DFF293008142109
:1003F800FF2933081421B20A36290800861C292A45
:100408002422D0305222022AAE0002222422D030E6
:1004180052222C0852222E085222292A0222242251
:10042800D03052222E08522229222422D1305222A0
:100438003822AE00AF01AE1BAF0329222E080800F8
:1004480083168610831286100800061083168610FD
:10045800831286100000000000000000061400004F
:100468000000000086140800061083168614811305
:100478008312B001B01B442A083030020318502AF6
:10048800061000000000000000000614B10D311035
:1004980086183114B00A3E2A31080800B0008316C5
:1004A80086108312B101B11B5D2A0830310203188E
:1004B800672AB00D0610031C86100318861406144C
:1004C8000000B10A572A0610831686148113831276
:1004D8000614080083160313F126AE01AF01B0011C
:1004E800B10133211F30AE00AF01B001B10133219A
:1004F8002C30AE00AF01B001B10133214530AE0060
:10050800AF01B001B10133215A30AE00AF01B001E3
:10051800B10133211A21A000313A031D952A39244B
:10052800712A2008323A031D9B2AA422712A6030BE
:10053800AE00AF012008B000B1013321712AA32A0F
:100548006C30AE00AF01B001B10133210230AE0012
:10055800AF011222AC0010302C05AD002D0E0F3962
:10056800AD003030AD072D0814210F302C05AD003B
:100578003030AD072D0814213A3014210130AE0077
:10058800AF011222AC00F0302C05AD002D0E0F3952
:10059800AD003030AD072D0814210F302C05AD000B
:1005A8003030AD072D0814213A301421AE01AF01C7
:1005B8001222AC0070302C05AD002D0E0F39AD00A5
:1005C8003030AD072D0814210F302C05AD00303028
:1005D800AD072D081421203014210230AE00AF01E0
:1005E8001222AC00AC1EFF2AB130AE00AF01B00140
:1005F800B1013321052BB430AE00AF01B001B10118
:1006080033218B30AE00AF01B001B101332103308B
:10061800AE00AF011222AC002C0B182BF330AE0049
:10062800AF01B001B10133212C08023A031D222B7E
:10063800FA30AE00AF01B001B10133212C08033A02
:10064800031D2C2B0130AE00AF00B001B1013321E6
:100658002C08043A031D372B0930AE000130AF00D7
:10066800B001B10133212C08053A031D422B133088
:10067800AE000130AF00B001B10133212C08063AB9
:10068800031D4D2B1C30AE000130AF00B001B1018D
:1006980033212C08073A031D582B2330AE000130B4
:1006A800AF00B001B1013321203014210530AE0074
:1006B800AF011222AC00F0302C05AD000F30AC05B4
:1006C8002D0E0F39AD0003102D0DAF00AD01053013
:1006D800AE002F08AD07AE0B6D2B2D08AC072C0B09
:1006E8007C2B2C30AE000130AF00B001B1013321BA
:1006F8002C08023A031D872B3430AE000130AF00BE
:10070800B001B10133212C08033A031D922B3D306F
:10071800AE000130AF00B001B10133212C08043A1A
:10072800031D9D2B4330AE000130AF00B001B10175
:1007380033212C08053A031DA82B4930AE0001309F
:10074800AF00B001B10133212C08063A031DB32BC9
:100758004D30AE000130AF00B001B10133212C089B
:10076800073A031DBE2B5230AE000130AF00B00176
:10077800B10133212C08083A031DC92B5730AE00AC
:100788000130AF00B001B10133212C08093A031D33
:10079800D42B5E30AE000130AF00B001B10133217F
:1007A8002C080A3A031DDF2B6830AE000130AF0079
:1007B800B001B10133212C080B3A031DEA2B70302C
:1007C800AE000130AF00B001B10133212C080C3A62
:1007D800031DF52B7930AE000130AF00B001B10137
:1007E8003321203014210430AE00AF011222AC00B6
:1007F800F0302C05AD002D0E0F39AD003030AD07AF
:100808002D0814210F302C05AD003030AD072D0810
:1008180014212C301421203014210630AE00AF01F1
:100828001222AC008F30AE00AF01B001B10133210C
:10083800F0302C05AD002D0E0F39AD003030AD076E
:100848002D0814210F302C05AD003030AD072D08D0
:1008580014210730AE00AF011222AC009230AE0076
:10086800AF012C08B000B10133290130A200A40067
:10087800A500A600B730AE00AF01B001B101332129
:10088800A930AE00AF012408B000B1013321A9306E
:10089800AE00AF012508B000B1013321AD30AE0084
:1008A800AF012608B000B10133212B1C612CB130F7
:1008B800AE00AF01B001B10133212B18692CB4305F
:1008C800AE00AF01B001B10133211A21A300613A92
:1008D800031D722C023022020318A2032308733A64
:1008E800031D7A2C04302202031CA20A23082B3A87
:1008F800031D8F2C22030319A40A2208023A0319A4
:10090800A50A2208033A0319A60A2208043A031D75
:100918008F2C0130AB0623082D3A031DA42C22038B
:100928000319A4032208023A0319A5032208033A6B
:100938000319A6032208043A031DA42C0130AB06B0
:100948002308703A0319AB2C0D301421442C2608C7
:10095800AD00AE010830AC00AD0DAE0D0A302E0270
:10096800031CB92C0A30AE020314A10DAC0BB02C39
:10097800210EF039A1009230AE000130AF002608F8
:10098800B000B10133212608AD00A6010830AC0043
:10099800AD0DA60D0A302602031CD42C0A30A6027F
:1009A800AC0BCC2C9230AE000130AF002608B00062
:1009B800B10133212108A604A613AC01AD01260814
:1009C80008222508AD00AE010830AC00AD0DAE0D13
:1009D8000A302E02031CF32C0A30AE020314A10DB8
:1009E800AC0BEA2C210EF039A1002508AD00A501B9
:1009F8000830AC00AD0DA50D0A302502031C062DEC
:100A08000A30A502AC0BFE2C2108A5040130AC006D
:100A1800AD01250808222408AD00AE010830AC005D
:100A2800AD0DAE0D0A302E02031C1D2D0A30AE028C
:100A38000314A10DAC0B142D210EF039A1002408CC
:100A4800AD00A4010830AC00AD0DA40D0A3024029D
:100A5800031C302D0A30A402AC0B282D2108A40455
:100A680024172B18A4162B1CA4120230AC00AD01BD
:100A7800240808220130A200A700A800A900043019
:100A8800AA00B730AE00AF01B001B1013321270B86
:100A9800532DF330AE00AF01B001B1013321270867
:100AA800023A031D5D2DFA30AE00AF01B001B1016D
:100AB80033212708033A031D672D0130AE00AF002C
:100AC800B001B10133212708043A031D722D093002
:100AD800AE000130AF00B001B10133212708053A5B
:100AE800031D7D2D1330AE000130AF00B001B10100
:100AF80033212708063A031D882D1C30AE0001302B
:100B0800AF00B001B10133212708073A031D932D27
:100B18002330AE000130AF00B001B10133212030E5
:100B28001421280B9E2D2C30AE000130AF00B001EF
:100B3800B10133212808023A031DA92D3430AE0033
:100B48000130AF00B001B10133212808033A031D79
:100B5800B42D3D30AE000130AF00B001B1013321FA
:100B68002808043A031DBF2D4330AE000130AF0002
:100B7800B001B10133212808053A031DCA2D4930B7
:100B8800AE000130AF00B001B10133212808063AA8
:100B9800031DD52D4D30AE000130AF00B001B101BD
:100BA80033212808073A031DE02D5230AE000130EA
:100BB800AF00B001B10133212808083A031DEB2D1D
:100BC8005730AE000130AF00B001B1013321280821
:100BD800093A031DF62D5E30AE000130AF00B001BA
:100BE800B101332128080A3A031D012E6830AE00EE
:100BF8000130AF00B001B101332128080B3A031DC1
:100C08000C2E7030AE000130AF00B001B1013321BD
:100C180028080C3A031D172E7930AE000130AF00BA
:100C2800B001B10133218230AE000130AF00290894
:100C3800B000B10133218730AE000130AF002A087F
:100C4800B000B10133211A21A300613A031D302EEF
:100C5800023022020318A2032308733A031D382E18
:100C680004302202031CA20A23082B3A031D4B2E30
:100C780022030319A70A2208023A0319A80A22081C
:100C8800033A0319A90A2208043A0319AA0A2308ED
:100C98002D3A031D5E2E22030319A7032208023AE8
:100CA8000319A8032208033A0319A9032208043ADE
:100CB8000319AA032308703A0319652E0D3014216D
:100CC8004B2D0330AC00AD01270808222808AD00E1
:100CD800AE010830AC00AD0DAE0D0A302E02031C7B
:100CE800782E0A30AE020314A10DAC0B6F2E210E24
:100CF800F039A1002808AD00A8010830AC00AD0DFE
:100D0800A80D0A302802031C8B2E0A30A802AC0B4F
:100D1800832E2108A8049230AE000130AF002808C5
:100D2800B000B10133210530AC00AD01280808221C
:100D38002908AD00AE010830AC00AD0DAE0D0A308B
:100D48002E02031CAA2E0A30AE020314A10DAC0B0E
:100D5800A12E210EF039A1002908AD00A901083003
:100D6800AC00AD0DA90D0A302902031CBD2E0A30B6
:100D7800A902AC0BB52E2108A9040430AC00AD01C2
:100D8800290808222A08AD00AE010830AC00AD0DD4
:100D9800AE0D0A302E02031CD42E0A30AE02031404
:100DA800A10DAC0BCB2E210EF039A1002A08AD0005
:100DB800AA010830AC00AD0DAA0D0A302A02031CA6
:100DC800E72E0A30AA02AC0BDF2E2108AA0406304F
:100DD800AC00AD012A080822A42A9B0183128501D0
:100DE800FF3083168500831286010430831686003F
:100DF80081309900243098009030831298000800C0
:00000001FF
